:060000000A128A11122809
:10000800FF00030883120313AB000408AC000A08BE
:10001800AD007E08AE000A128A119B2C0A128A11C2
:10002800152D0A128A1130250A128A11C830F600D5
:100038000030F7000A128A11FC240A128A110A12E7
:100048008A1129250A128A11C830F6000030F700F3
:100058000A128A11FC240A128A11013074067504E6
:10006800031D372838285428831203133408803A8C
:10007800F90080307902031D432803303302031C42
:1000880046284728542820300A128A11FB230A12CE
:100098008A1120300A128A11FB230A128A118A282F
:1000A800710883120313A501A5077008A401A4070A
:1000B8000A30A6000030A7000A128A112C220A1260
:1000C8008A118313831203132408303E0A128A11FB
:1000D800FB230A128A11710883120313A101A107D5
:1000E8007008A001A0070A30A2000030A3000A127D
:1000F8008A1109230A128A11831383120313200811
:10010800303E0A128A11FB230A128A113A300A1267
:100118008A11FB230A128A11023074067504031D22
:1001280096289728B328831203133408803AF900D5
:1001380080307902031DA22803303302031CA5284E
:10014800A628B32820300A128A11FB230A128A1122
:1001580020300A128A11FB230A128A11E92873082F
:1001680083120313A501A5077208A401A4070A3086
:10017800A6000030A7000A128A112C220A128A113E
:100188008313831203132408303E0A128A11FB23B7
:100198000A128A11730883120313A101A1077208B6
:1001A800A001A0070A30A2000030A3000A128A1199
:1001B80009230A128A118313831203132008303E7D
:1001C8000A128A11FB230A128A113A300A128A117A
:1001D800FB230A128A11831203133008A501A5070D
:1001E8002F08A401A4070A30A6000030A7000A12AD
:1001F8008A112C220A128A118313831203132408EA
:10020800303E0A128A11FB230A128A118312031341
:100218003008A101A1072F08A001A0070A30A200F9
:100228000030A3000A128A1109230A128A118313C3
:10023800831203132008303E0A128A11FB230A1284
:100248008A11831203133308013EF9003408031896
:10025800013E003EFA0003307905B30000307A050C
:10026800B400080083120313051A3B293C29F72917
:100278002030F6004E30F7000A128A11FC240A12C8
:100288008A11003083120313B1000030B2007C29B8
:100298003208803AA40080302402031D5529023018
:1002A80031020318582959295F297508740403195C
:1002B8005E295F297C297408013E83120313A0007C
:1002C80075080318013E003EA1000330A20000306B
:1002D800A3000A128A1109230A128A1183138312AE
:1002E80003132108F501F5072008F401F407822912
:1002F80083120313051E812982294C292030F60018
:100308004E30F7000A128A11FC240A128A11F729C2
:1003180083120313061891299229C1292030F60067
:100328004E30F7000A128A11FC240A128A1183122D
:1003380003130618A029A129BC293808A5003708E5
:10034800A4000130A6000310A40DA50DA60BA72933
:1003580070082407A70071080318710A2507A80068
:100368002708013EF00028080318013E003EF1006E
:100378000130B7000030B800052A0030B70000305F
:10038800B800052A831203130618CB29CC29C129E2
:100398002030F6004E30F7000A128A11FC240A12A7
:1003A8008A11831203130618DA29DB29BC293808B5
:1003B800A5003708A4000130A6000310A40DA50D60
:1003C800A60BE12972082407A70073080318730A0B
:1003D8002507A8002708013EF20028080318013E57
:1003E800003EF300BC29002A7408013A03198C293D
:1003F800033A0319C629052A7508003A0319F8298A
:10040800052A7308803A83120313A400803024025B
:10041800031D102A3C307202031C132A142A182ABE
:100428000030F2000030F3007108803A83120313A1
:10043800A40080302402031D232A18307002031CF4
:10044800262A272A2B2A0030F0000030F100080065
:10045800031000300318013083120313A100A71FF3
:10046800362A372A3F2AA609A709A60A0319A70A7E
:10047800A1010314A10DA51F422A432A4C2AA4094D
:10048800A509A40A0319A50A0130F6007608A106F1
:100498000030A2000030A300270826040319552ABB
:1004A800562A8E2AA0010314A00D652A01300310D4
:1004B800A60DA70DFF3E031D5B2A0130F600760846
:1004C800A007A71F682A692A5A2A01300310A20D1B
:1004D800A30DFF3E031D6A2A27082502031D762A5D
:1004E80026082402031C792A7A2A812A2608A402CB
:1004F8002708031CA503A502221401300310A70C2A
:10050800A60CFF3E031D822A0130A002031D8D2A7E
:100518008E2A692A2108031D922A972AA209A3096B
:10052800A20A0319A30A2308A501A5072208A40102
:10053800A4070800831203138813F430F60001306F
:10054800F7000A128A11FC240A128A118312031373
:10055800061588172030F6004E30F7000A128A1167
:10056800FC240A128A1130300A128A1131240A1224
:100578008A119430F6001130F7000A128A11FC240F
:100588000A128A1130300A128A1131240A128A1189
:10059800C830F6000030F7000A128A11FC240A124B
:1005A8008A1130300A128A1131240A128A11203035
:1005B8000A128A1131240A128A1128300A128A1161
:1005C80031240A128A1101300A128A1131240A12BE
:1005D8008A110C300A128A1131240A128A11063043
:1005E8000A128A1131240A128A1106300A128A1153
:1005F80031240A128A110C300A128A1131240A1283
:100608008A1183120313061108000310003003181F
:100618000130F70083120313A11F132B142B1C2B7B
:10062800A009A109A00A0319A10AF7010314F70DEB
:10063800A31F1F2B202B252BA209A309A20A0319EC
:10064800A30A2308220403192A2B2B2B5B2BF8015E
:100658000314F80D3A2B01300310A20DA30DFF3E31
:10066800031D302B0130F6007608F807A31F3D2B39
:100678003E2B2F2B23082102031D442B2208200286
:10068800031C472B482B4E2B2208A0022308031CCF
:10069800A103A10201300310A30CA20CFF3E031D0D
:1006A8004F2B0130F802031D5A2B5B2B3E2B77088A
:1006B800031D5F2B642BA009A109A00A0319A10A35
:1006C8000800013083120313AF070318B00A003083
:1006D800B0073008803AA90080302902031D762B24
:1006E8003C302F02031C792B7A2BB02B003083125D
:1006F8000313AF000030B0000130F2070318F30A0B
:100708000030F3077308803AA90080302902031DDE
:100718008F2B3C307202031C922B932BB02B003092
:10072800F2000030F3000130F0070318F10A00303E
:10073800F1077108803A83120313A9008030290257
:10074800031DA82B18307002031CAB2BAC2BB02B4D
:100758000030F0000030F1000800C43083120313A9
:100768008B000130831603138C000310003003182C
:100778000130831203138C000F3090000430920074
:100788001F308316031385000130860003100030E4
:1007980003180130831203138600023083160313F3
:1007A800870003100030031801308800FF308312DF
:1007B80003138E007F308F0080308316031381006F
:1007C800003083120313AF000030B0000030F20095
:1007D8000030F3000030F0000030F1000030B100CC
:1007E8000030B2000030F4000030F5000800831239
:1007F8000313A1000A128A1167240A128A118312AC
:10080800031308132108F80004300310F80CFF3E06
:10081800031D092C78080F3990388800081705300F
:10082800F6000030F7000A128A11FC240A128A1115
:1008380083120313081321080F399038880008170A
:100848000530F6000030F7000A128A11FC240A125B
:100858008A11831203130813080083120313A100DB
:100868000A128A1167240A128A11831203130813C1
:100878002108F80004300310F80CFF3E031D3F2C3C
:1008880078080F398038880008170530F6000030DE
:10089800F7000A128A11FC240A128A118312031320
:1008A800081321080F398038880008170530F6002A
:1008B8000030F7000A128A11FC240A128A118312E6
:1008C80003130813080083120313861508308316D0
:1008D80003138800831203130812881608170530BB
:1008E800F6000030F7000A128A11FC240A128A1155
:1008F800831203130808A00008130530F60000301F
:10090800F7000A128A11FC240A128A1183120313AF
:10091800A0198F2C902C722C031000300318013072
:1009280083160313880083120313861108000C1C16
:100938009E2C9F2CB52CFF308E007F308F000A1222
:100948008A11E2240A128A110A128A1165230A12EC
:100958008A11013083120313B1070318B20A003059
:10096800B2070C102E08FE002D088A002C088400FF
:100978002B088300FF0E7F0E09000A128A11B1238B
:100988000A128A110A128A119E220A128A110A125E
:100998008A1136210A128A110A128A1115200A129E
:1009A8008A111030F6002730F7000A128A11FC2449
:1009B8000A128A11CB2C0A128A11122883120313E5
:1009C80036083504031DE92CEA2CEC2C8614ED2C92
:1009D80086103508013EA90036080318013E003E7E
:1009E800AA0001302905B50000302A05B600080024
:1009F800203083160313920077087604031D052D13
:100A0800062D072D142D83128C1C0B2D0C2D072D54
:100A18008C100130F6020030031CF703F702002D9A
:100A28000800F001F101F201F301F401F501AF0151
:100A3800B001B101B201B301B401B501B601B7010A
:100A4800B80183010A128A11C12C02300A128A11D4
:100A580031240A128A11080001300A128A1131243D
:060A68000A128A110800C9
:02400E00791621
:00000001FF
