:020000000F28C7
:10000800CF00030883129700040898000A08990093
:100018004E089A00B02895290310003003180130C3
:1000280083129100941F19281A28222893099409E9
:10003800930A0319940A91010314910D961F252818
:1000480026282B2895099609950A0319960A160851
:100058001504031930283128612892010314920DE0
:10006800402801300310950D960DFF3E031D3628DC
:100078000130900010089207961F4328442835281D
:1000880016081402031D4A2815081302031C4D28DC
:100098004E285428150893021608031C940394024A
:1000A80001300310960C950CFF3E031D55280130B6
:1000B8009202031D6028612844281108031D652841
:1000C8006A2893099409930A0319940A0800842852
:1000D800FA308600A5283E308600A5281A3086000A
:1000E800A5287A308600A528DE308600A5288E301F
:1000F8008600A528F6308600A528FC308600A528AD
:10010800A02883121B08003A03196C28013A031926
:100118006F28033A03197228013A03197528073A18
:1001280003197828013A03197B28033A03197E2812
:10013800013A03198128A5281C08003A03198528C3
:10014800A52801309B0703189C0A00309C0707303C
:100158009B0500309C0508000B1DB328B428BC285B
:1001680008301D061E04031DBA28BB28BC286B20B6
:1001780083128B1CC028C128C3287F21EA200130A4
:1001880083129D0703189E0A00309E071E089401DB
:1001980094071D08930193070930950000309600D5
:1001A80010208313831214089E019E0713089D01D3
:1001B8009D078B100B111A08CE0019088A00180821
:1001C800840017088300CF0E4F0E090000308312F9
:1001D800940000309300003092000130910001300B
:1001E8009107003003110318013E0319FC289207F8
:1001F800003003110318013E031903299307003047
:1002080003110318013E03190A2994071408803AB8
:10021800900080301002031D1B2900301302031DBB
:100228001B2927301202031D1B2911301102031C40
:100238001E291F29F32808008312910083168818A5
:1002480026292729222983121108890012088800E3
:100258003F309000100883168805831203108B1F07
:1002680036293729382903148B1383160815553076
:100278008900AA308900881408118312031C4529B3
:10028800462947298B170800203083128300B03095
:100298008B000310003003180130831685001F30CF
:1002A800831285000130831686000310003003187E
:1002B8000130831286000030642183168100080013
:1002C80083128F00831688186A296B29662983127E
:1002D8000F0889003F308C000C0883168805081425
:1002E80003100818031400300318013083128D001E
:1002F8008E010808080083168108031D84298529B2
:100308008829073081008A29013081020108831277
:1003180092000030202183160108F83883128500E6
:1003280008009B019C019D019E0183019B29482196
:040338009C290F28C5
:02400E00F23F7F
:1042000007006000BE008E00FE0066000000000097
:00000001FF
