:020000040000FA
:020000005A287C
:06000A00013400347134E2
:0A00100000341834003401340034C9
:06001A00052083128C009A
:1000200006208D0083120C080D04031D18284E288D
:10003000072083128E0008208F0009208312900071
:100040000A2091000B20831292000C20930083124F
:100050001208130403194828831210088400342856
:100060000F088A000E088200302083139108031DB8
:100070008317800083128E0A03188F0A8312900A56
:100080000318910A831292080319930392032728F5
:0E00900083128C0803198D038C0312280800BC
:02009E008316C7
:1000A00000308500013086008312FE30850000306C
:1000B000860008000D204F200314FF30051E03109A
:0A00C000051E8500850D65205C28F3
:0600CA00023098009701CE
:1000D00096010000960B6928970B6828980B6728F3
:0200E000080016
:0200E2000334E5
:02400E00F23F7F
:00000001FF
